{
  "contractName": "Token",
  "abi": [
    {
      "inputs": [
        {
          "internalType": "string",
          "name": "_TokenName",
          "type": "string"
        },
        {
          "internalType": "string",
          "name": "_TokenSymbol",
          "type": "string"
        },
        {
          "internalType": "uint256",
          "name": "limitMint",
          "type": "uint256"
        }
      ],
      "stateMutability": "nonpayable",
      "type": "constructor"
    },
    {
      "anonymous": false,
      "inputs": [
        {
          "indexed": true,
          "internalType": "address",
          "name": "owner",
          "type": "address"
        },
        {
          "indexed": true,
          "internalType": "address",
          "name": "spender",
          "type": "address"
        },
        {
          "indexed": false,
          "internalType": "uint256",
          "name": "value",
          "type": "uint256"
        }
      ],
      "name": "Approval",
      "type": "event"
    },
    {
      "anonymous": false,
      "inputs": [
        {
          "indexed": true,
          "internalType": "address",
          "name": "previousOwner",
          "type": "address"
        },
        {
          "indexed": true,
          "internalType": "address",
          "name": "newOwner",
          "type": "address"
        }
      ],
      "name": "OwnershipTransferred",
      "type": "event"
    },
    {
      "anonymous": false,
      "inputs": [
        {
          "indexed": true,
          "internalType": "address",
          "name": "from",
          "type": "address"
        },
        {
          "indexed": true,
          "internalType": "address",
          "name": "to",
          "type": "address"
        },
        {
          "indexed": false,
          "internalType": "uint256",
          "name": "value",
          "type": "uint256"
        }
      ],
      "name": "Transfer",
      "type": "event"
    },
    {
      "inputs": [
        {
          "internalType": "address",
          "name": "owner",
          "type": "address"
        },
        {
          "internalType": "address",
          "name": "spender",
          "type": "address"
        }
      ],
      "name": "allowance",
      "outputs": [
        {
          "internalType": "uint256",
          "name": "",
          "type": "uint256"
        }
      ],
      "stateMutability": "view",
      "type": "function"
    },
    {
      "inputs": [
        {
          "internalType": "address",
          "name": "spender",
          "type": "address"
        },
        {
          "internalType": "uint256",
          "name": "amount",
          "type": "uint256"
        }
      ],
      "name": "approve",
      "outputs": [
        {
          "internalType": "bool",
          "name": "",
          "type": "bool"
        }
      ],
      "stateMutability": "nonpayable",
      "type": "function"
    },
    {
      "inputs": [
        {
          "internalType": "address",
          "name": "account",
          "type": "address"
        }
      ],
      "name": "balanceOf",
      "outputs": [
        {
          "internalType": "uint256",
          "name": "",
          "type": "uint256"
        }
      ],
      "stateMutability": "view",
      "type": "function"
    },
    {
      "inputs": [],
      "name": "decimals",
      "outputs": [
        {
          "internalType": "uint8",
          "name": "",
          "type": "uint8"
        }
      ],
      "stateMutability": "view",
      "type": "function"
    },
    {
      "inputs": [
        {
          "internalType": "address",
          "name": "spender",
          "type": "address"
        },
        {
          "internalType": "uint256",
          "name": "subtractedValue",
          "type": "uint256"
        }
      ],
      "name": "decreaseAllowance",
      "outputs": [
        {
          "internalType": "bool",
          "name": "",
          "type": "bool"
        }
      ],
      "stateMutability": "nonpayable",
      "type": "function"
    },
    {
      "inputs": [
        {
          "internalType": "address",
          "name": "spender",
          "type": "address"
        },
        {
          "internalType": "uint256",
          "name": "addedValue",
          "type": "uint256"
        }
      ],
      "name": "increaseAllowance",
      "outputs": [
        {
          "internalType": "bool",
          "name": "",
          "type": "bool"
        }
      ],
      "stateMutability": "nonpayable",
      "type": "function"
    },
    {
      "inputs": [],
      "name": "name",
      "outputs": [
        {
          "internalType": "string",
          "name": "",
          "type": "string"
        }
      ],
      "stateMutability": "view",
      "type": "function"
    },
    {
      "inputs": [],
      "name": "owner",
      "outputs": [
        {
          "internalType": "address",
          "name": "",
          "type": "address"
        }
      ],
      "stateMutability": "view",
      "type": "function"
    },
    {
      "inputs": [],
      "name": "renounceOwnership",
      "outputs": [],
      "stateMutability": "nonpayable",
      "type": "function"
    },
    {
      "inputs": [],
      "name": "symbol",
      "outputs": [
        {
          "internalType": "string",
          "name": "",
          "type": "string"
        }
      ],
      "stateMutability": "view",
      "type": "function"
    },
    {
      "inputs": [],
      "name": "totalSupply",
      "outputs": [
        {
          "internalType": "uint256",
          "name": "",
          "type": "uint256"
        }
      ],
      "stateMutability": "view",
      "type": "function"
    },
    {
      "inputs": [
        {
          "internalType": "address",
          "name": "sender",
          "type": "address"
        },
        {
          "internalType": "address",
          "name": "recipient",
          "type": "address"
        },
        {
          "internalType": "uint256",
          "name": "amount",
          "type": "uint256"
        }
      ],
      "name": "transferFrom",
      "outputs": [
        {
          "internalType": "bool",
          "name": "",
          "type": "bool"
        }
      ],
      "stateMutability": "nonpayable",
      "type": "function"
    },
    {
      "inputs": [
        {
          "internalType": "address",
          "name": "newOwner",
          "type": "address"
        }
      ],
      "name": "transferOwnership",
      "outputs": [],
      "stateMutability": "nonpayable",
      "type": "function"
    },
    {
      "inputs": [
        {
          "internalType": "address",
          "name": "bankAddress",
          "type": "address"
        }
      ],
      "name": "makeBankAddress",
      "outputs": [],
      "stateMutability": "nonpayable",
      "type": "function"
    },
    {
      "inputs": [
        {
          "internalType": "uint256",
          "name": "precentage",
          "type": "uint256"
        }
      ],
      "name": "setBuyCommissionPrecentage",
      "outputs": [],
      "stateMutability": "nonpayable",
      "type": "function"
    },
    {
      "inputs": [
        {
          "internalType": "uint256",
          "name": "precentage",
          "type": "uint256"
        }
      ],
      "name": "setSellCommissionPrecentage",
      "outputs": [],
      "stateMutability": "nonpayable",
      "type": "function"
    },
    {
      "inputs": [
        {
          "internalType": "address",
          "name": "shopAddress",
          "type": "address"
        }
      ],
      "name": "addShopAddress",
      "outputs": [],
      "stateMutability": "nonpayable",
      "type": "function"
    },
    {
      "inputs": [
        {
          "internalType": "address",
          "name": "shopAddress",
          "type": "address"
        }
      ],
      "name": "removeShopAddress",
      "outputs": [],
      "stateMutability": "nonpayable",
      "type": "function"
    },
    {
      "inputs": [
        {
          "internalType": "address",
          "name": "recipient",
          "type": "address"
        },
        {
          "internalType": "uint256",
          "name": "amount",
          "type": "uint256"
        }
      ],
      "name": "transfer",
      "outputs": [
        {
          "internalType": "bool",
          "name": "",
          "type": "bool"
        }
      ],
      "stateMutability": "nonpayable",
      "type": "function"
    }
  ],
  "bytecode": "0x60806040523480156200001157600080fd5b50604051620028fc380380620028fc833981810160405281019062000037919062000444565b82828160039080519060200190620000519291906200030b565b5080600490805190602001906200006a9291906200030b565b5050506200008d62000081620000ba60201b60201c565b620000c260201b60201c565b6200009f33826200018860201b60201c565b6103e86007819055506103e860088190555050505062000750565b600033905090565b6000600560009054906101000a900473ffffffffffffffffffffffffffffffffffffffff16905081600560006101000a81548173ffffffffffffffffffffffffffffffffffffffff021916908373ffffffffffffffffffffffffffffffffffffffff1602179055508173ffffffffffffffffffffffffffffffffffffffff168173ffffffffffffffffffffffffffffffffffffffff167f8be0079c531659141344cd1fd0a4f28419497f9722a3daafe3b4186f6b6457e060405160405180910390a35050565b600073ffffffffffffffffffffffffffffffffffffffff168273ffffffffffffffffffffffffffffffffffffffff161415620001fb576040517f08c379a0000000000000000000000000000000000000000000000000000000008152600401620001f2906200051f565b60405180910390fd5b6200020f600083836200030160201b60201c565b8060026000828254620002239190620005d6565b92505081905550806000808473ffffffffffffffffffffffffffffffffffffffff1673ffffffffffffffffffffffffffffffffffffffff16815260200190815260200160002060008282546200027a9190620005d6565b925050819055508173ffffffffffffffffffffffffffffffffffffffff16600073ffffffffffffffffffffffffffffffffffffffff167fddf252ad1be2c89b69c2b068fc378daa952ba7f163c4a11628f55a4df523b3ef83604051620002e1919062000541565b60405180910390a3620002fd600083836200030660201b60201c565b5050565b505050565b505050565b828054620003199062000673565b90600052602060002090601f0160209004810192826200033d576000855562000389565b82601f106200035857805160ff191683800117855562000389565b8280016001018555821562000389579182015b82811115620003885782518255916020019190600101906200036b565b5b5090506200039891906200039c565b5090565b5b80821115620003b75760008160009055506001016200039d565b5090565b6000620003d2620003cc8462000592565b6200055e565b905082815260208101848484011115620003eb57600080fd5b620003f88482856200063d565b509392505050565b600082601f8301126200041257600080fd5b815162000424848260208601620003bb565b91505092915050565b6000815190506200043e8162000736565b92915050565b6000806000606084860312156200045a57600080fd5b600084015167ffffffffffffffff8111156200047557600080fd5b620004838682870162000400565b935050602084015167ffffffffffffffff811115620004a157600080fd5b620004af8682870162000400565b9250506040620004c2868287016200042d565b9150509250925092565b6000620004db601f83620005c5565b91507f45524332303a206d696e7420746f20746865207a65726f2061646472657373006000830152602082019050919050565b620005198162000633565b82525050565b600060208201905081810360008301526200053a81620004cc565b9050919050565b60006020820190506200055860008301846200050e565b92915050565b6000604051905081810181811067ffffffffffffffff8211171562000588576200058762000707565b5b8060405250919050565b600067ffffffffffffffff821115620005b057620005af62000707565b5b601f19601f8301169050602081019050919050565b600082825260208201905092915050565b6000620005e38262000633565b9150620005f08362000633565b9250827fffffffffffffffffffffffffffffffffffffffffffffffffffffffffffffffff03821115620006285762000627620006a9565b5b828201905092915050565b6000819050919050565b60005b838110156200065d57808201518184015260208101905062000640565b838111156200066d576000848401525b50505050565b600060028204905060018216806200068c57607f821691505b60208210811415620006a357620006a2620006d8565b5b50919050565b7f4e487b7100000000000000000000000000000000000000000000000000000000600052601160045260246000fd5b7f4e487b7100000000000000000000000000000000000000000000000000000000600052602260045260246000fd5b7f4e487b7100000000000000000000000000000000000000000000000000000000600052604160045260246000fd5b620007418162000633565b81146200074d57600080fd5b50565b61219c80620007606000396000f3fe608060405234801561001057600080fd5b50600436106101215760003560e01c8063794d6cc8116100ad578063a457c2d711610071578063a457c2d7146102f6578063a9059cbb14610326578063b6b197a914610356578063dd62ed3e14610372578063f2fde38b146103a257610121565b8063794d6cc81461026657806385bf11c8146102825780638da5cb5b1461029e5780638db71ee1146102bc57806395d89b41146102d857610121565b806323b872dd116100f457806323b872dd146101ae578063313ce567146101de57806339509351146101fc57806370a082311461022c578063715018a61461025c57610121565b806306fdde0314610126578063095ea7b3146101445780630ae99ea61461017457806318160ddd14610190575b600080fd5b61012e6103be565b60405161013b9190611ceb565b60405180910390f35b61015e60048036038101906101599190611745565b610450565b60405161016b9190611cd0565b60405180910390f35b61018e60048036038101906101899190611691565b61046e565b005b6101986105d1565b6040516101a59190611ead565b60405180910390f35b6101c860048036038101906101c391906116f6565b6105db565b6040516101d59190611cd0565b60405180910390f35b6101e66106d3565b6040516101f39190611ec8565b60405180910390f35b61021660048036038101906102119190611745565b6106dc565b6040516102239190611cd0565b60405180910390f35b61024660048036038101906102419190611691565b610788565b6040516102539190611ead565b60405180910390f35b6102646107d0565b005b610280600480360381019061027b9190611781565b610858565b005b61029c60048036038101906102979190611691565b610922565b005b6102a6610a86565b6040516102b39190611cb5565b60405180910390f35b6102d660048036038101906102d19190611691565b610ab0565b005b6102e0610b70565b6040516102ed9190611ceb565b60405180910390f35b610310600480360381019061030b9190611745565b610c02565b60405161031d9190611cd0565b60405180910390f35b610340600480360381019061033b9190611745565b610ced565b60405161034d9190611cd0565b60405180910390f35b610370600480360381019061036b9190611781565b610efa565b005b61038c600480360381019061038791906116ba565b610fc4565b6040516103999190611ead565b60405180910390f35b6103bc60048036038101906103b79190611691565b61104b565b005b6060600380546103cd90612068565b80601f01602080910402602001604051908101604052809291908181526020018280546103f990612068565b80156104465780601f1061041b57610100808354040283529160200191610446565b820191906000526020600020905b81548152906001019060200180831161042957829003601f168201915b5050505050905090565b600061046461045d611143565b848461114b565b6001905092915050565b610476611143565b73ffffffffffffffffffffffffffffffffffffffff16610494610a86565b73ffffffffffffffffffffffffffffffffffffffff16146104ea576040517f08c379a00000000000000000000000000000000000000000000000000000000081526004016104e190611dcd565b60405180910390fd5b600660008273ffffffffffffffffffffffffffffffffffffffff1673ffffffffffffffffffffffffffffffffffffffff16815260200190815260200160002060009054906101000a900460ff16610576576040517f08c379a000000000000000000000000000000000000000000000000000000000815260040161056d90611e4d565b60405180910390fd5b6000600660008373ffffffffffffffffffffffffffffffffffffffff1673ffffffffffffffffffffffffffffffffffffffff16815260200190815260200160002060006101000a81548160ff02191690831515021790555050565b6000600254905090565b60006105e8848484611316565b6000600160008673ffffffffffffffffffffffffffffffffffffffff1673ffffffffffffffffffffffffffffffffffffffff1681526020019081526020016000206000610633611143565b73ffffffffffffffffffffffffffffffffffffffff1673ffffffffffffffffffffffffffffffffffffffff168152602001908152602001600020549050828110156106b3576040517f08c379a00000000000000000000000000000000000000000000000000000000081526004016106aa90611dad565b60405180910390fd5b6106c7856106bf611143565b85840361114b565b60019150509392505050565b60006012905090565b600061077e6106e9611143565b8484600160006106f7611143565b73ffffffffffffffffffffffffffffffffffffffff1673ffffffffffffffffffffffffffffffffffffffff16815260200190815260200160002060008873ffffffffffffffffffffffffffffffffffffffff1673ffffffffffffffffffffffffffffffffffffffff168152602001908152602001600020546107799190611eff565b61114b565b6001905092915050565b60008060008373ffffffffffffffffffffffffffffffffffffffff1673ffffffffffffffffffffffffffffffffffffffff168152602001908152602001600020549050919050565b6107d8611143565b73ffffffffffffffffffffffffffffffffffffffff166107f6610a86565b73ffffffffffffffffffffffffffffffffffffffff161461084c576040517f08c379a000000000000000000000000000000000000000000000000000000000815260040161084390611dcd565b60405180910390fd5b6108566000611597565b565b610860611143565b73ffffffffffffffffffffffffffffffffffffffff1661087e610a86565b73ffffffffffffffffffffffffffffffffffffffff16146108d4576040517f08c379a00000000000000000000000000000000000000000000000000000000081526004016108cb90611dcd565b60405180910390fd5b6127108110610918576040517f08c379a000000000000000000000000000000000000000000000000000000000815260040161090f90611e6d565b60405180910390fd5b8060078190555050565b61092a611143565b73ffffffffffffffffffffffffffffffffffffffff16610948610a86565b73ffffffffffffffffffffffffffffffffffffffff161461099e576040517f08c379a000000000000000000000000000000000000000000000000000000000815260040161099590611dcd565b60405180910390fd5b600660008273ffffffffffffffffffffffffffffffffffffffff1673ffffffffffffffffffffffffffffffffffffffff16815260200190815260200160002060009054906101000a900460ff1615610a2b576040517f08c379a0000000000000000000000000000000000000000000000000000000008152600401610a2290611d2d565b60405180910390fd5b6001600660008373ffffffffffffffffffffffffffffffffffffffff1673ffffffffffffffffffffffffffffffffffffffff16815260200190815260200160002060006101000a81548160ff02191690831515021790555050565b6000600560009054906101000a900473ffffffffffffffffffffffffffffffffffffffff16905090565b610ab8611143565b73ffffffffffffffffffffffffffffffffffffffff16610ad6610a86565b73ffffffffffffffffffffffffffffffffffffffff1614610b2c576040517f08c379a0000000000000000000000000000000000000000000000000000000008152600401610b2390611dcd565b60405180910390fd5b80600960006101000a81548173ffffffffffffffffffffffffffffffffffffffff021916908373ffffffffffffffffffffffffffffffffffffffff16021790555050565b606060048054610b7f90612068565b80601f0160208091040260200160405190810160405280929190818152602001828054610bab90612068565b8015610bf85780601f10610bcd57610100808354040283529160200191610bf8565b820191906000526020600020905b815481529060010190602001808311610bdb57829003601f168201915b5050505050905090565b60008060016000610c11611143565b73ffffffffffffffffffffffffffffffffffffffff1673ffffffffffffffffffffffffffffffffffffffff16815260200190815260200160002060008573ffffffffffffffffffffffffffffffffffffffff1673ffffffffffffffffffffffffffffffffffffffff16815260200190815260200160002054905082811015610cce576040517f08c379a0000000000000000000000000000000000000000000000000000000008152600401610cc590611e8d565b60405180910390fd5b610ce2610cd9611143565b8585840361114b565b600191505092915050565b6000600660008473ffffffffffffffffffffffffffffffffffffffff1673ffffffffffffffffffffffffffffffffffffffff16815260200190815260200160002060009054906101000a900460ff1615610e25576000610d53610d4e611143565b610788565b9050612710600854612710610d689190611eff565b84610d739190611f86565b610d7d9190611f55565b811015610dbf576040517f08c379a0000000000000000000000000000000000000000000000000000000008152600401610db690611e0d565b60405180910390fd5b610dd1610dca611143565b8585611316565b610e1f610ddc611143565b600960009054906101000a900473ffffffffffffffffffffffffffffffffffffffff1661271060085487610e109190611f86565b610e1a9190611f55565b611316565b50610ef0565b60066000610e31611143565b73ffffffffffffffffffffffffffffffffffffffff1673ffffffffffffffffffffffffffffffffffffffff16815260200190815260200160002060009054906101000a900460ff1615610edc57610e90610e89611143565b8484611316565b610ed783600960009054906101000a900473ffffffffffffffffffffffffffffffffffffffff1661271060075486610ec89190611f86565b610ed29190611f55565b611316565b610eef565b610eee610ee7611143565b8484611316565b5b5b6001905092915050565b610f02611143565b73ffffffffffffffffffffffffffffffffffffffff16610f20610a86565b73ffffffffffffffffffffffffffffffffffffffff1614610f76576040517f08c379a0000000000000000000000000000000000000000000000000000000008152600401610f6d90611dcd565b60405180910390fd5b6127108110610fba576040517f08c379a0000000000000000000000000000000000000000000000000000000008152600401610fb190611e6d565b60405180910390fd5b8060088190555050565b6000600160008473ffffffffffffffffffffffffffffffffffffffff1673ffffffffffffffffffffffffffffffffffffffff16815260200190815260200160002060008373ffffffffffffffffffffffffffffffffffffffff1673ffffffffffffffffffffffffffffffffffffffff16815260200190815260200160002054905092915050565b611053611143565b73ffffffffffffffffffffffffffffffffffffffff16611071610a86565b73ffffffffffffffffffffffffffffffffffffffff16146110c7576040517f08c379a00000000000000000000000000000000000000000000000000000000081526004016110be90611dcd565b60405180910390fd5b600073ffffffffffffffffffffffffffffffffffffffff168173ffffffffffffffffffffffffffffffffffffffff161415611137576040517f08c379a000000000000000000000000000000000000000000000000000000000815260040161112e90611d4d565b60405180910390fd5b61114081611597565b50565b600033905090565b600073ffffffffffffffffffffffffffffffffffffffff168373ffffffffffffffffffffffffffffffffffffffff1614156111bb576040517f08c379a00000000000000000000000000000000000000000000000000000000081526004016111b290611e2d565b60405180910390fd5b600073ffffffffffffffffffffffffffffffffffffffff168273ffffffffffffffffffffffffffffffffffffffff16141561122b576040517f08c379a000000000000000000000000000000000000000000000000000000000815260040161122290611d6d565b60405180910390fd5b80600160008573ffffffffffffffffffffffffffffffffffffffff1673ffffffffffffffffffffffffffffffffffffffff16815260200190815260200160002060008473ffffffffffffffffffffffffffffffffffffffff1673ffffffffffffffffffffffffffffffffffffffff168152602001908152602001600020819055508173ffffffffffffffffffffffffffffffffffffffff168373ffffffffffffffffffffffffffffffffffffffff167f8c5be1e5ebec7d5bd14f71427d1e84f3dd0314c0f7b2291e5b200ac8c7c3b925836040516113099190611ead565b60405180910390a3505050565b600073ffffffffffffffffffffffffffffffffffffffff168373ffffffffffffffffffffffffffffffffffffffff161415611386576040517f08c379a000000000000000000000000000000000000000000000000000000000815260040161137d90611ded565b60405180910390fd5b600073ffffffffffffffffffffffffffffffffffffffff168273ffffffffffffffffffffffffffffffffffffffff1614156113f6576040517f08c379a00000000000000000000000000000000000000000000000000000000081526004016113ed90611d0d565b60405180910390fd5b61140183838361165d565b60008060008573ffffffffffffffffffffffffffffffffffffffff1673ffffffffffffffffffffffffffffffffffffffff16815260200190815260200160002054905081811015611487576040517f08c379a000000000000000000000000000000000000000000000000000000000815260040161147e90611d8d565b60405180910390fd5b8181036000808673ffffffffffffffffffffffffffffffffffffffff1673ffffffffffffffffffffffffffffffffffffffff16815260200190815260200160002081905550816000808573ffffffffffffffffffffffffffffffffffffffff1673ffffffffffffffffffffffffffffffffffffffff168152602001908152602001600020600082825461151a9190611eff565b925050819055508273ffffffffffffffffffffffffffffffffffffffff168473ffffffffffffffffffffffffffffffffffffffff167fddf252ad1be2c89b69c2b068fc378daa952ba7f163c4a11628f55a4df523b3ef8460405161157e9190611ead565b60405180910390a3611591848484611662565b50505050565b6000600560009054906101000a900473ffffffffffffffffffffffffffffffffffffffff16905081600560006101000a81548173ffffffffffffffffffffffffffffffffffffffff021916908373ffffffffffffffffffffffffffffffffffffffff1602179055508173ffffffffffffffffffffffffffffffffffffffff168173ffffffffffffffffffffffffffffffffffffffff167f8be0079c531659141344cd1fd0a4f28419497f9722a3daafe3b4186f6b6457e060405160405180910390a35050565b505050565b505050565b60008135905061167681612138565b92915050565b60008135905061168b8161214f565b92915050565b6000602082840312156116a357600080fd5b60006116b184828501611667565b91505092915050565b600080604083850312156116cd57600080fd5b60006116db85828601611667565b92505060206116ec85828601611667565b9150509250929050565b60008060006060848603121561170b57600080fd5b600061171986828701611667565b935050602061172a86828701611667565b925050604061173b8682870161167c565b9150509250925092565b6000806040838503121561175857600080fd5b600061176685828601611667565b92505060206117778582860161167c565b9150509250929050565b60006020828403121561179357600080fd5b60006117a18482850161167c565b91505092915050565b6117b381611fe0565b82525050565b6117c281611ff2565b82525050565b60006117d382611ee3565b6117dd8185611eee565b93506117ed818560208601612035565b6117f681612127565b840191505092915050565b600061180e602383611eee565b91507f45524332303a207472616e7366657220746f20746865207a65726f206164647260008301527f65737300000000000000000000000000000000000000000000000000000000006020830152604082019050919050565b6000611874601383611eee565b91507f6974732073657420746f2074727565206e6f77000000000000000000000000006000830152602082019050919050565b60006118b4602683611eee565b91507f4f776e61626c653a206e6577206f776e657220697320746865207a65726f206160008301527f64647265737300000000000000000000000000000000000000000000000000006020830152604082019050919050565b600061191a602283611eee565b91507f45524332303a20617070726f766520746f20746865207a65726f20616464726560008301527f73730000000000000000000000000000000000000000000000000000000000006020830152604082019050919050565b6000611980602683611eee565b91507f45524332303a207472616e7366657220616d6f756e742065786365656473206260008301527f616c616e636500000000000000000000000000000000000000000000000000006020830152604082019050919050565b60006119e6602883611eee565b91507f45524332303a207472616e7366657220616d6f756e742065786365656473206160008301527f6c6c6f77616e63650000000000000000000000000000000000000000000000006020830152604082019050919050565b6000611a4c602083611eee565b91507f4f776e61626c653a2063616c6c6572206973206e6f7420746865206f776e65726000830152602082019050919050565b6000611a8c602583611eee565b91507f45524332303a207472616e736665722066726f6d20746865207a65726f20616460008301527f64726573730000000000000000000000000000000000000000000000000000006020830152604082019050919050565b6000611af2603183611eee565b91507f4e6f7420656e6f7567682066756e647320666f7220636f6d6d697373696f6e2060008301527f6f7220746f74616c207472616e736665720000000000000000000000000000006020830152604082019050919050565b6000611b58602483611eee565b91507f45524332303a20617070726f76652066726f6d20746865207a65726f2061646460008301527f72657373000000000000000000000000000000000000000000000000000000006020830152604082019050919050565b6000611bbe601483611eee565b91507f6974732073657420746f2066616c7365206e6f770000000000000000000000006000830152602082019050919050565b6000611bfe601683611eee565b91507f4d757374206265206c657373207468656e2031303025000000000000000000006000830152602082019050919050565b6000611c3e602583611eee565b91507f45524332303a2064656372656173656420616c6c6f77616e63652062656c6f7760008301527f207a65726f0000000000000000000000000000000000000000000000000000006020830152604082019050919050565b611ca08161201e565b82525050565b611caf81612028565b82525050565b6000602082019050611cca60008301846117aa565b92915050565b6000602082019050611ce560008301846117b9565b92915050565b60006020820190508181036000830152611d0581846117c8565b905092915050565b60006020820190508181036000830152611d2681611801565b9050919050565b60006020820190508181036000830152611d4681611867565b9050919050565b60006020820190508181036000830152611d66816118a7565b9050919050565b60006020820190508181036000830152611d868161190d565b9050919050565b60006020820190508181036000830152611da681611973565b9050919050565b60006020820190508181036000830152611dc6816119d9565b9050919050565b60006020820190508181036000830152611de681611a3f565b9050919050565b60006020820190508181036000830152611e0681611a7f565b9050919050565b60006020820190508181036000830152611e2681611ae5565b9050919050565b60006020820190508181036000830152611e4681611b4b565b9050919050565b60006020820190508181036000830152611e6681611bb1565b9050919050565b60006020820190508181036000830152611e8681611bf1565b9050919050565b60006020820190508181036000830152611ea681611c31565b9050919050565b6000602082019050611ec26000830184611c97565b92915050565b6000602082019050611edd6000830184611ca6565b92915050565b600081519050919050565b600082825260208201905092915050565b6000611f0a8261201e565b9150611f158361201e565b9250827fffffffffffffffffffffffffffffffffffffffffffffffffffffffffffffffff03821115611f4a57611f4961209a565b5b828201905092915050565b6000611f608261201e565b9150611f6b8361201e565b925082611f7b57611f7a6120c9565b5b828204905092915050565b6000611f918261201e565b9150611f9c8361201e565b9250817fffffffffffffffffffffffffffffffffffffffffffffffffffffffffffffffff0483118215151615611fd557611fd461209a565b5b828202905092915050565b6000611feb82611ffe565b9050919050565b60008115159050919050565b600073ffffffffffffffffffffffffffffffffffffffff82169050919050565b6000819050919050565b600060ff82169050919050565b60005b83811015612053578082015181840152602081019050612038565b83811115612062576000848401525b50505050565b6000600282049050600182168061208057607f821691505b60208210811415612094576120936120f8565b5b50919050565b7f4e487b7100000000000000000000000000000000000000000000000000000000600052601160045260246000fd5b7f4e487b7100000000000000000000000000000000000000000000000000000000600052601260045260246000fd5b7f4e487b7100000000000000000000000000000000000000000000000000000000600052602260045260246000fd5b6000601f19601f8301169050919050565b61214181611fe0565b811461214c57600080fd5b50565b6121588161201e565b811461216357600080fd5b5056fea26469706673582212203cce30f2d60c463a1e6a03dbe725a016ef2f24dadf9ad8f1eb20cfca7b27361764736f6c63430008000033",
  "immutableReferences": {},
  "source": "// SPDX-License-Identifier: MIT\r\npragma solidity ^0.8.0;\r\nimport \"@openzeppelin/contracts/utils/math/SafeMath.sol\";\r\nimport \"@openzeppelin/contracts/token/ERC20/ERC20.sol\";\r\nimport \"@openzeppelin/contracts/access/Ownable.sol\";\r\n\r\ncontract Token is ERC20, Ownable{\r\n    mapping(address => bool) shopAddresses;\r\n    uint buyCommissionPrecentage;\r\n    uint sellCommissionPrecentage;\r\n    address bank;\r\n    constructor(string memory _TokenName, string memory _TokenSymbol, uint256 limitMint) ERC20(_TokenName, _TokenSymbol) \r\n    {\r\n        _mint(msg.sender, limitMint);\r\n        buyCommissionPrecentage = 1000;\r\n        sellCommissionPrecentage = 1000;\r\n    }\r\n\r\n    //Set address where all commission funds go to\r\n    function makeBankAddress(address bankAddress) public \r\n    onlyOwner\r\n    {\r\n        bank = bankAddress;\r\n    }\r\n\r\n    //Self explanatory\r\n    function setBuyCommissionPrecentage(uint precentage) public \r\n    onlyOwner\r\n    {\r\n        require(precentage < 10000, \"Must be less then 100%\");\r\n        buyCommissionPrecentage = precentage;\r\n    }\r\n    \r\n    //Self explanatory\r\n    function setSellCommissionPrecentage(uint precentage) public \r\n    onlyOwner\r\n    {\r\n        require(precentage < 10000, \"Must be less then 100%\");\r\n        sellCommissionPrecentage = precentage;\r\n    }\r\n    \r\n    //Self explanatory\r\n    function addShopAddress(address shopAddress) public\r\n    onlyOwner\r\n    {\r\n        require(!shopAddresses[shopAddress],\"its set to true now\");\r\n        shopAddresses[shopAddress] = true;\r\n    }\r\n\r\n    //Self explanatory\r\n    function removeShopAddress(address shopAddress) public\r\n    onlyOwner\r\n    {\r\n        require(shopAddresses[shopAddress],\"its set to false now\");\r\n        shopAddresses[shopAddress] = false;\r\n    }\r\n\r\n    //override for the ERC20 transfer function to add commissions\r\n    function transfer(address recipient, uint256 amount) public virtual override(ERC20) returns (bool) {\r\n        \r\n        if (shopAddresses[recipient])\r\n        {\r\n            uint256 senderBalance = balanceOf(_msgSender());\r\n            require(senderBalance >= amount * (10000+sellCommissionPrecentage) / 10000, \"Not enough funds for commission or total transfer\");\r\n            _transfer(_msgSender(), recipient, amount);\r\n            _transfer(_msgSender(), bank, amount * sellCommissionPrecentage / 10000);\r\n        }\r\n        else if (shopAddresses[_msgSender()]) \r\n        {\r\n            _transfer(_msgSender(), recipient, amount);\r\n            _transfer(recipient, bank, amount * buyCommissionPrecentage / 10000);\r\n        }\r\n        else\r\n        {\r\n            _transfer(_msgSender(), recipient, amount);\r\n        }\r\n        return true;\r\n    }\r\n}\r\n",
  "sourcePath": "C:/Users/User/Desktop/VSCProject/CommissionToken/contracts/Token.sol",
  "compiler": {
    "name": "solc",
    "version": "0.8.0+commit.c7dfd78e.Emscripten.clang"
  },
  "schemaVersion": "3.4.1",
  "updatedAt": "2021-07-01T16:17:49.768Z",
  "devdoc": {
    "kind": "dev",
    "methods": {
      "allowance(address,address)": {
        "details": "See {IERC20-allowance}."
      },
      "approve(address,uint256)": {
        "details": "See {IERC20-approve}. Requirements: - `spender` cannot be the zero address."
      },
      "balanceOf(address)": {
        "details": "See {IERC20-balanceOf}."
      },
      "decimals()": {
        "details": "Returns the number of decimals used to get its user representation. For example, if `decimals` equals `2`, a balance of `505` tokens should be displayed to a user as `5,05` (`505 / 10 ** 2`). Tokens usually opt for a value of 18, imitating the relationship between Ether and Wei. This is the value {ERC20} uses, unless this function is overridden; NOTE: This information is only used for _display_ purposes: it in no way affects any of the arithmetic of the contract, including {IERC20-balanceOf} and {IERC20-transfer}."
      },
      "decreaseAllowance(address,uint256)": {
        "details": "Atomically decreases the allowance granted to `spender` by the caller. This is an alternative to {approve} that can be used as a mitigation for problems described in {IERC20-approve}. Emits an {Approval} event indicating the updated allowance. Requirements: - `spender` cannot be the zero address. - `spender` must have allowance for the caller of at least `subtractedValue`."
      },
      "increaseAllowance(address,uint256)": {
        "details": "Atomically increases the allowance granted to `spender` by the caller. This is an alternative to {approve} that can be used as a mitigation for problems described in {IERC20-approve}. Emits an {Approval} event indicating the updated allowance. Requirements: - `spender` cannot be the zero address."
      },
      "name()": {
        "details": "Returns the name of the token."
      },
      "owner()": {
        "details": "Returns the address of the current owner."
      },
      "renounceOwnership()": {
        "details": "Leaves the contract without owner. It will not be possible to call `onlyOwner` functions anymore. Can only be called by the current owner. NOTE: Renouncing ownership will leave the contract without an owner, thereby removing any functionality that is only available to the owner."
      },
      "symbol()": {
        "details": "Returns the symbol of the token, usually a shorter version of the name."
      },
      "totalSupply()": {
        "details": "See {IERC20-totalSupply}."
      },
      "transfer(address,uint256)": {
        "details": "See {IERC20-transfer}. Requirements: - `recipient` cannot be the zero address. - the caller must have a balance of at least `amount`."
      },
      "transferFrom(address,address,uint256)": {
        "details": "See {IERC20-transferFrom}. Emits an {Approval} event indicating the updated allowance. This is not required by the EIP. See the note at the beginning of {ERC20}. Requirements: - `sender` and `recipient` cannot be the zero address. - `sender` must have a balance of at least `amount`. - the caller must have allowance for ``sender``'s tokens of at least `amount`."
      },
      "transferOwnership(address)": {
        "details": "Transfers ownership of the contract to a new account (`newOwner`). Can only be called by the current owner."
      }
    },
    "version": 1
  },
  "userdoc": {
    "kind": "user",
    "methods": {},
    "version": 1
  }
}